{
  "contractName": "Actor",
  "abi": [
    {
      "constant": true,
      "inputs": [],
      "name": "hasInitialized",
      "outputs": [
        {
          "name": "",
          "type": "bool"
        }
      ],
      "payable": false,
      "stateMutability": "view",
      "type": "function"
    },
    {
      "constant": true,
      "inputs": [],
      "name": "TRANSFER_ROLE",
      "outputs": [
        {
          "name": "",
          "type": "bytes32"
        }
      ],
      "payable": false,
      "stateMutability": "view",
      "type": "function"
    },
    {
      "constant": true,
      "inputs": [
        {
          "name": "_script",
          "type": "bytes"
        }
      ],
      "name": "getEVMScriptExecutor",
      "outputs": [
        {
          "name": "",
          "type": "address"
        }
      ],
      "payable": false,
      "stateMutability": "view",
      "type": "function"
    },
    {
      "constant": true,
      "inputs": [],
      "name": "getRecoveryVault",
      "outputs": [
        {
          "name": "",
          "type": "address"
        }
      ],
      "payable": false,
      "stateMutability": "view",
      "type": "function"
    },
    {
      "constant": true,
      "inputs": [],
      "name": "RUN_SCRIPT_ROLE",
      "outputs": [
        {
          "name": "",
          "type": "bytes32"
        }
      ],
      "payable": false,
      "stateMutability": "view",
      "type": "function"
    },
    {
      "constant": false,
      "inputs": [
        {
          "name": "_token",
          "type": "address"
        },
        {
          "name": "_value",
          "type": "uint256"
        }
      ],
      "name": "deposit",
      "outputs": [],
      "payable": true,
      "stateMutability": "payable",
      "type": "function"
    },
    {
      "constant": true,
      "inputs": [],
      "name": "isDepositable",
      "outputs": [
        {
          "name": "",
          "type": "bool"
        }
      ],
      "payable": false,
      "stateMutability": "view",
      "type": "function"
    },
    {
      "constant": true,
      "inputs": [],
      "name": "EXECUTE_ROLE",
      "outputs": [
        {
          "name": "",
          "type": "bytes32"
        }
      ],
      "payable": false,
      "stateMutability": "view",
      "type": "function"
    },
    {
      "constant": true,
      "inputs": [],
      "name": "PRESIGN_HASH_ROLE",
      "outputs": [
        {
          "name": "",
          "type": "bytes32"
        }
      ],
      "payable": false,
      "stateMutability": "view",
      "type": "function"
    },
    {
      "constant": true,
      "inputs": [
        {
          "name": "",
          "type": "address"
        }
      ],
      "name": "allowRecoverability",
      "outputs": [
        {
          "name": "",
          "type": "bool"
        }
      ],
      "payable": false,
      "stateMutability": "view",
      "type": "function"
    },
    {
      "constant": true,
      "inputs": [],
      "name": "appId",
      "outputs": [
        {
          "name": "",
          "type": "bytes32"
        }
      ],
      "payable": false,
      "stateMutability": "view",
      "type": "function"
    },
    {
      "constant": false,
      "inputs": [],
      "name": "initialize",
      "outputs": [],
      "payable": false,
      "stateMutability": "nonpayable",
      "type": "function"
    },
    {
      "constant": true,
      "inputs": [],
      "name": "getInitializationBlock",
      "outputs": [
        {
          "name": "",
          "type": "uint256"
        }
      ],
      "payable": false,
      "stateMutability": "view",
      "type": "function"
    },
    {
      "constant": true,
      "inputs": [],
      "name": "ISVALIDSIG_INTERFACE_ID",
      "outputs": [
        {
          "name": "",
          "type": "bytes4"
        }
      ],
      "payable": false,
      "stateMutability": "view",
      "type": "function"
    },
    {
      "constant": false,
      "inputs": [
        {
          "name": "_token",
          "type": "address"
        }
      ],
      "name": "transferToVault",
      "outputs": [],
      "payable": false,
      "stateMutability": "nonpayable",
      "type": "function"
    },
    {
      "constant": true,
      "inputs": [
        {
          "name": "_sender",
          "type": "address"
        },
        {
          "name": "_role",
          "type": "bytes32"
        },
        {
          "name": "_params",
          "type": "uint256[]"
        }
      ],
      "name": "canPerform",
      "outputs": [
        {
          "name": "",
          "type": "bool"
        }
      ],
      "payable": false,
      "stateMutability": "view",
      "type": "function"
    },
    {
      "constant": true,
      "inputs": [],
      "name": "getEVMScriptRegistry",
      "outputs": [
        {
          "name": "",
          "type": "address"
        }
      ],
      "payable": false,
      "stateMutability": "view",
      "type": "function"
    },
    {
      "constant": true,
      "inputs": [
        {
          "name": "",
          "type": "bytes32"
        }
      ],
      "name": "isPresigned",
      "outputs": [
        {
          "name": "",
          "type": "bool"
        }
      ],
      "payable": false,
      "stateMutability": "view",
      "type": "function"
    },
    {
      "constant": false,
      "inputs": [
        {
          "name": "_token",
          "type": "address"
        },
        {
          "name": "_to",
          "type": "address"
        },
        {
          "name": "_value",
          "type": "uint256"
        }
      ],
      "name": "transfer",
      "outputs": [],
      "payable": false,
      "stateMutability": "nonpayable",
      "type": "function"
    },
    {
      "constant": true,
      "inputs": [],
      "name": "kernel",
      "outputs": [
        {
          "name": "",
          "type": "address"
        }
      ],
      "payable": false,
      "stateMutability": "view",
      "type": "function"
    },
    {
      "constant": true,
      "inputs": [],
      "name": "isPetrified",
      "outputs": [
        {
          "name": "",
          "type": "bool"
        }
      ],
      "payable": false,
      "stateMutability": "view",
      "type": "function"
    },
    {
      "constant": true,
      "inputs": [
        {
          "name": "_token",
          "type": "address"
        }
      ],
      "name": "balance",
      "outputs": [
        {
          "name": "",
          "type": "uint256"
        }
      ],
      "payable": false,
      "stateMutability": "view",
      "type": "function"
    },
    {
      "payable": true,
      "stateMutability": "payable",
      "type": "fallback"
    },
    {
      "anonymous": false,
      "inputs": [
        {
          "indexed": true,
          "name": "sender",
          "type": "address"
        },
        {
          "indexed": true,
          "name": "target",
          "type": "address"
        },
        {
          "indexed": false,
          "name": "ethValue",
          "type": "uint256"
        },
        {
          "indexed": false,
          "name": "data",
          "type": "bytes"
        }
      ],
      "name": "Execute",
      "type": "event"
    },
    {
      "anonymous": false,
      "inputs": [
        {
          "indexed": true,
          "name": "sender",
          "type": "address"
        },
        {
          "indexed": true,
          "name": "hash",
          "type": "bytes32"
        }
      ],
      "name": "PresignHash",
      "type": "event"
    },
    {
      "anonymous": false,
      "inputs": [
        {
          "indexed": true,
          "name": "sender",
          "type": "address"
        },
        {
          "indexed": true,
          "name": "oldSigner",
          "type": "address"
        },
        {
          "indexed": true,
          "name": "newSigner",
          "type": "address"
        }
      ],
      "name": "SetDesignatedSigner",
      "type": "event"
    },
    {
      "anonymous": false,
      "inputs": [
        {
          "indexed": true,
          "name": "token",
          "type": "address"
        },
        {
          "indexed": true,
          "name": "to",
          "type": "address"
        },
        {
          "indexed": false,
          "name": "amount",
          "type": "uint256"
        }
      ],
      "name": "VaultTransfer",
      "type": "event"
    },
    {
      "anonymous": false,
      "inputs": [
        {
          "indexed": true,
          "name": "token",
          "type": "address"
        },
        {
          "indexed": true,
          "name": "sender",
          "type": "address"
        },
        {
          "indexed": false,
          "name": "amount",
          "type": "uint256"
        }
      ],
      "name": "VaultDeposit",
      "type": "event"
    },
    {
      "anonymous": false,
      "inputs": [
        {
          "indexed": true,
          "name": "executor",
          "type": "address"
        },
        {
          "indexed": false,
          "name": "script",
          "type": "bytes"
        },
        {
          "indexed": false,
          "name": "input",
          "type": "bytes"
        },
        {
          "indexed": false,
          "name": "returnData",
          "type": "bytes"
        }
      ],
      "name": "ScriptResult",
      "type": "event"
    },
    {
      "constant": false,
      "inputs": [
        {
          "name": "_target",
          "type": "address"
        },
        {
          "name": "_ethValue",
          "type": "uint256"
        },
        {
          "name": "_data",
          "type": "bytes"
        }
      ],
      "name": "execute",
      "outputs": [],
      "payable": false,
      "stateMutability": "nonpayable",
      "type": "function"
    },
    {
      "constant": false,
      "inputs": [
        {
          "name": "_hash",
          "type": "bytes32"
        }
      ],
      "name": "presignHash",
      "outputs": [],
      "payable": false,
      "stateMutability": "nonpayable",
      "type": "function"
    },
    {
      "constant": true,
      "inputs": [],
      "name": "isForwarder",
      "outputs": [
        {
          "name": "",
          "type": "bool"
        }
      ],
      "payable": false,
      "stateMutability": "pure",
      "type": "function"
    },
    {
      "constant": true,
      "inputs": [
        {
          "name": "interfaceId",
          "type": "bytes4"
        }
      ],
      "name": "supportsInterface",
      "outputs": [
        {
          "name": "",
          "type": "bool"
        }
      ],
      "payable": false,
      "stateMutability": "pure",
      "type": "function"
    },
    {
      "constant": false,
      "inputs": [
        {
          "name": "_evmScript",
          "type": "bytes"
        }
      ],
      "name": "forward",
      "outputs": [],
      "payable": false,
      "stateMutability": "nonpayable",
      "type": "function"
    },
    {
      "constant": true,
      "inputs": [
        {
          "name": "hash",
          "type": "bytes32"
        },
        {
          "name": "signature",
          "type": "bytes"
        }
      ],
      "name": "isValidSignature",
      "outputs": [
        {
          "name": "",
          "type": "bool"
        }
      ],
      "payable": false,
      "stateMutability": "view",
      "type": "function"
    },
    {
      "constant": true,
      "inputs": [
        {
          "name": "sender",
          "type": "address"
        },
        {
          "name": "evmScript",
          "type": "bytes"
        }
      ],
      "name": "canForward",
      "outputs": [
        {
          "name": "",
          "type": "bool"
        }
      ],
      "payable": false,
      "stateMutability": "view",
      "type": "function"
    }
  ],
  "bytecode": "0x6080604052620000176401000000006200001d810204565b6200023b565b6200003064010000000062000125810204565b60408051808201909152601881527f494e49545f414c52454144595f494e495449414c495a45440000000000000000602082015290156200010c576040517f08c379a00000000000000000000000000000000000000000000000000000000081526004018080602001828103825283818151815260200191508051906020019080838360005b83811015620000d0578181015183820152602001620000b6565b50505050905090810190601f168015620000fe5780820380516001836020036101000a031916815260200191505b509250505060405180910390fd5b506200012360001964010000000062000154810204565b565b60006200014f600080516020620036f88339815191526401000000006200294e6200023382021704565b905090565b6200016764010000000062000125810204565b60408051808201909152601881527f494e49545f414c52454144595f494e495449414c495a454400000000000000006020820152901562000206576040517f08c379a000000000000000000000000000000000000000000000000000000000815260040180806020018281038252838181518152602001915080519060200190808383600083811015620000d0578181015183820152602001620000b6565b5062000230600080516020620036f883398151915282640100000000620033de6200023782021704565b50565b5490565b9055565b6134ad806200024b6000396000f3006080604052600436106101745763ffffffff7c010000000000000000000000000000000000000000000000000000000060003504166301ffc9a781146103005780630803fac01461034e5780631626ba7e14610363578063206b60f9146103c15780632914b9bd146103e857806332f0a3b51461046a578063368c3c341461047f57806347e7ef241461049457806348a0c8dd146104b85780634c7ec0b0146104cd5780635fa5e4e6146104e5578063747a593e146104fa5780637e7db6e11461050f57806380afdea81461053d5780638129fc1c146105525780638b3dd749146105675780639058a46e1461057c5780639d4941d8146105c6578063a1658fad146105f4578063a479e50814610668578063b4fa653c1461067d578063b61d27f614610695578063beabacc8146106d3578063c0774df31461070a578063d4aae0c41461077e578063d948d46814610793578063de4796ed146107ec578063e3d670d714610801578063fd64eccb1461082f575b61017c610844565b60408051808201909152601481527f494e49545f4e4f545f494e495449414c495a45440000000000000000000000006020820152901515610255576040517f08c379a00000000000000000000000000000000000000000000000000000000081526004018080602001828103825283818151815260200191508051906020019080838360005b8381101561021a578181015183820152602001610202565b50505050905090810190601f1680156102475780820380516001836020036101000a031916815260200191505b509250505060405180910390fd5b5060408051808201909152601381527f5641554c545f444154415f4e4f4e5f5a45524f00000000000000000000000000602082015236156102f2576040517f08c379a00000000000000000000000000000000000000000000000000000000081526004018080602001828103825283818151815260200191508051906020019080838360008381101561021a578181015183820152602001610202565b506102fe60003461086d565b005b34801561030c57600080fd5b5061033a7fffffffff0000000000000000000000000000000000000000000000000000000060043516610c09565b604080519115158252519081900360200190f35b34801561035a57600080fd5b5061033a610844565b34801561036f57600080fd5b5060408051602060046024803582810135601f810185900485028601850190965285855261033a958335953695604494919390910191908190840183828082843750949750610c549650505050505050565b3480156103cd57600080fd5b506103d6610e4a565b60408051918252519081900360200190f35b3480156103f457600080fd5b506040805160206004803580820135601f8101849004840285018401909552848452610441943694929360249392840191908190840183828082843750949750610e7f9650505050505050565b6040805173ffffffffffffffffffffffffffffffffffffffff9092168252519081900360200190f35b34801561047657600080fd5b50610441610f8b565b34801561048b57600080fd5b506103d6611029565b6102fe73ffffffffffffffffffffffffffffffffffffffff6004351660243561105e565b3480156104c457600080fd5b5061033a611112565b3480156104d957600080fd5b506102fe600435611142565b3480156104f157600080fd5b506103d661128c565b34801561050657600080fd5b506103d66112c1565b34801561051b57600080fd5b5061033a73ffffffffffffffffffffffffffffffffffffffff600435166112f6565b34801561054957600080fd5b506103d66112fc565b34801561055e57600080fd5b506102fe611327565b34801561057357600080fd5b506103d66113e0565b34801561058857600080fd5b5061059161140b565b604080517fffffffff000000000000000000000000000000000000000000000000000000009092168252519081900360200190f35b3480156105d257600080fd5b506102fe73ffffffffffffffffffffffffffffffffffffffff6004351661142f565b34801561060057600080fd5b50604080516020600460443581810135838102808601850190965280855261033a95833573ffffffffffffffffffffffffffffffffffffffff169560248035963696956064959394920192918291850190849080828437509497506117389650505050505050565b34801561067457600080fd5b506104416118be565b34801561068957600080fd5b5061033a600435611980565b3480156106a157600080fd5b506102fe6004803573ffffffffffffffffffffffffffffffffffffffff16906024803591604435918201910135611995565b3480156106df57600080fd5b506102fe73ffffffffffffffffffffffffffffffffffffffff60043581169060243516604435611d39565b34801561071657600080fd5b5060408051602060046024803582810135601f810185900485028601850190965285855261033a95833573ffffffffffffffffffffffffffffffffffffffff1695369560449491939091019190819084018382808284375094975061218c9650505050505050565b34801561078a57600080fd5b5061044161221c565b34801561079f57600080fd5b506040805160206004803580820135601f81018490048402850184019095528484526102fe9436949293602493928401919081908401838280828437509497506122479650505050505050565b3480156107f857600080fd5b5061033a61236a565b34801561080d57600080fd5b506103d673ffffffffffffffffffffffffffffffffffffffff6004351661239b565b34801561083b57600080fd5b5061033a612463565b60008061084f6113e0565b90508015801590610867575080610864612468565b10155b91505090565b610875611112565b60408051808201909152601581527f5641554c545f4e4f545f4445504f53495441424c4500000000000000000000006020820152901515610912576040517f08c379a00000000000000000000000000000000000000000000000000000000081526004018080602001828103825283818151815260200191508051906020019080838360008381101561021a578181015183820152602001610202565b5060408051808201909152601881527f5641554c545f4445504f5349545f56414c55455f5a45524f00000000000000006020820152600082116109b1576040517f08c379a00000000000000000000000000000000000000000000000000000000081526004018080602001828103825283818151815260200191508051906020019080838360008381101561021a578181015183820152602001610202565b5073ffffffffffffffffffffffffffffffffffffffff82161515610a725760408051808201909152601481527f5641554c545f56414c55455f4d49534d415443480000000000000000000000006020820152348214610a6c576040517f08c379a00000000000000000000000000000000000000000000000000000000081526004018080602001828103825283818151815260200191508051906020019080838360008381101561021a578181015183820152602001610202565b50610bb8565b604080517f23b872dd00000000000000000000000000000000000000000000000000000000815233600482015230602482015260448101839052905173ffffffffffffffffffffffffffffffffffffffff8416916323b872dd9160648083019260209291908290030181600087803b158015610aed57600080fd5b505af1158015610b01573d6000803e3d6000fd5b505050506040513d6020811015610b1757600080fd5b50516040805180820190915260208082527f5641554c545f544f4b454e5f5452414e534645525f46524f4d5f52455645525490820152901515610bb6576040517f08c379a00000000000000000000000000000000000000000000000000000000081526004018080602001828103825283818151815260200191508051906020019080838360008381101561021a578181015183820152602001610202565b505b604080518281529051339173ffffffffffffffffffffffffffffffffffffffff8516917f2790b90165fd3973ad7edde4eca71b4f8808dd4857a2a3a3e8ae5642a5cb196e9181900360200190a35050565b7fffffffff0000000000000000000000000000000000000000000000000000000081167fabababab00000000000000000000000000000000000000000000000000000000145b919050565b600082815260208190526040812054819060609081908390829060ff1615610c7f5760019550610e3f565b610c888761246c565b9450610c958760146124da565b6040805160008152602081018083527f5052455349474e5f484153485f524f4c450000000000000000000000000000009052905180820360310190209195509350610ce290869085611738565b1515610cf15760009550610e3f565b610d1b857fabababab000000000000000000000000000000000000000000000000000000006125d9565b15610e315760408051602481018a8152604482019283528651606483015286518895507f1626ba7e00000000000000000000000000000000000000000000000000000000938c93899392608490910190602085019080838360005b83811015610d8e578181015183820152602001610d76565b50505050905090810190601f168015610dbb5780820380516001836020036101000a031916815260200191505b509350505050604051602081830303815290604052907bffffffffffffffffffffffffffffffffffffffffffffffffffffffff19166020820180517bffffffffffffffffffffffffffffffffffffffffffffffffffffffff83818316178352505050509050610e2a8282612686565b9550610e3f565b610e3c8886866126f4565b95505b505050505092915050565b604080517f5452414e534645525f524f4c45000000000000000000000000000000000000008152905190819003600d01902081565b6000610e896118be565b73ffffffffffffffffffffffffffffffffffffffff166304bf2a7f836040518263ffffffff167c01000000000000000000000000000000000000000000000000000000000281526004018080602001828103825283818151815260200191508051906020019080838360005b83811015610f0d578181015183820152602001610ef5565b50505050905090810190601f168015610f3a5780820380516001836020036101000a031916815260200191505b5092505050602060405180830381600087803b158015610f5957600080fd5b505af1158015610f6d573d6000803e3d6000fd5b505050506040513d6020811015610f8357600080fd5b505192915050565b6000610f9561221c565b73ffffffffffffffffffffffffffffffffffffffff166332f0a3b56040518163ffffffff167c0100000000000000000000000000000000000000000000000000000000028152600401602060405180830381600087803b158015610ff857600080fd5b505af115801561100c573d6000803e3d6000fd5b505050506040513d602081101561102257600080fd5b5051905090565b604080517f52554e5f5343524950545f524f4c4500000000000000000000000000000000008152905190819003600f01902081565b611066610844565b60408051808201909152601481527f494e49545f4e4f545f494e495449414c495a45440000000000000000000000006020820152901515611103576040517f08c379a00000000000000000000000000000000000000000000000000000000081526004018080602001828103825283818151815260200191508051906020019080838360008381101561021a578181015183820152602001610202565b5061110e828261086d565b5050565b600061113d7f665fd576fbbe6f247aff98f5c94a561e3f71ec2d3c988d56f12d342396c50cea61294e565b905090565b604080517f5052455349474e5f484153485f524f4c450000000000000000000000000000008152905190819003601101902061117d82612952565b611188338383611738565b60408051808201909152600f81527f4150505f415554485f4641494c454400000000000000000000000000000000006020820152901515611225576040517f08c379a00000000000000000000000000000000000000000000000000000000081526004018080602001828103825283818151815260200191508051906020019080838360008381101561021a578181015183820152602001610202565b5060008381526020819052604080822080547fffffffffffffffffffffffffffffffffffffffffffffffffffffffffffffff0016600117905551849133917fb150212e573caa2a0216cf8f273ef996af143fd7b2d35abd92c8105536cac1609190a3505050565b604080517f455845435554455f524f4c4500000000000000000000000000000000000000008152905190819003600c01902081565b604080517f5052455349474e5f484153485f524f4c450000000000000000000000000000008152905190819003601101902081565b50600090565b600061113d7fd625496217aa6a3453eecb9c3489dc5a53e6c67b444329ea2b2cbc9ff547639b61294e565b61132f6113e0565b60408051808201909152601881527f494e49545f414c52454144595f494e495449414c495a45440000000000000000602082015290156113cb576040517f08c379a00000000000000000000000000000000000000000000000000000000081526004018080602001828103825283818151815260200191508051906020019080838360008381101561021a578181015183820152602001610202565b506113d4612963565b6113de6001612a40565b565b600061113d7febb05b386a8d34882b8711d156f463690983dc47815980fb82aeeff1aa43579e61294e565b7fabababab0000000000000000000000000000000000000000000000000000000081565b60008061143b836112f6565b60408051808201909152601281527f5245434f5645525f444953414c4c4f574544000000000000000000000000000060208201529015156114d8576040517f08c379a00000000000000000000000000000000000000000000000000000000081526004018080602001828103825283818151815260200191508051906020019080838360008381101561021a578181015183820152602001610202565b506114e1610f8b565b91506114ec82612a77565b60408051808201909152601a81527f5245434f5645525f5641554c545f4e4f545f434f4e54524143540000000000006020820152901515611589576040517f08c379a00000000000000000000000000000000000000000000000000000000081526004018080602001828103825283818151815260200191508051906020019080838360008381101561021a578181015183820152602001610202565b5073ffffffffffffffffffffffffffffffffffffffff831615156115f05760405173ffffffffffffffffffffffffffffffffffffffff831690303180156108fc02916000818181858888f193505050501580156115ea573d6000803e3d6000fd5b50611733565b604080517f70a08231000000000000000000000000000000000000000000000000000000008152306004820152905173ffffffffffffffffffffffffffffffffffffffff8516916370a082319160248083019260209291908290030181600087803b15801561165e57600080fd5b505af1158015611672573d6000803e3d6000fd5b505050506040513d602081101561168857600080fd5b5051604080517fa9059cbb00000000000000000000000000000000000000000000000000000000815273ffffffffffffffffffffffffffffffffffffffff85811660048301526024820184905291519293509085169163a9059cbb916044808201926020929091908290030181600087803b15801561170657600080fd5b505af115801561171a573d6000803e3d6000fd5b505050506040513d602081101561173057600080fd5b50505b505050565b60008060606000611747610844565b151561175657600093506118b4565b61175e61221c565b925073ffffffffffffffffffffffffffffffffffffffff8316151561178657600093506118b4565b5050825160209081028085526040517ffdef910600000000000000000000000000000000000000000000000000000000815273ffffffffffffffffffffffffffffffffffffffff888116600483019081523060248401819052604484018a90526080606485019081528951608486015289518a979489169563fdef9106958e958e948b949193909260a4909101919085019080838360005b8381101561183657818101518382015260200161181e565b50505050905090810190601f1680156118635780820380516001836020036101000a031916815260200191505b5095505050505050602060405180830381600087803b15801561188557600080fd5b505af1158015611899573d6000803e3d6000fd5b505050506040513d60208110156118af57600080fd5b505193505b5050509392505050565b6000806118c961221c565b604080517fbe00bbd80000000000000000000000000000000000000000000000000000000081527fd6f028ca0e8edb4a8c9757ca4fdccab25fa1e0317da1188108f7d2dee14902fb60048201527fddbcfd564f642ab5627cf68b9b7d374fb4f8a36e941a75d89c87998cef03bd616024820152905173ffffffffffffffffffffffffffffffffffffffff929092169163be00bbd8916044808201926020929091908290030181600087803b158015610f5957600080fd5b60006020819052908152604090205460ff1681565b600060405180807f455845435554455f524f4c450000000000000000000000000000000000000000815250600c0190506040518091039020611a308686611a0b87878080601f01602080910402602001604051908101604052809392919081815260200183838082843750612ab1945050505050565b7c01000000000000000000000000000000000000000000000000000000009004612ab7565b611a3b338383611738565b60408051808201909152600f81527f4150505f415554485f4641494c454400000000000000000000000000000000006020820152901515611ad8576040517f08c379a00000000000000000000000000000000000000000000000000000000081526004018080602001828103825283818151815260200191508051906020019080838360008381101561021a578181015183820152602001610202565b50851580611ae65750600084115b60408051808201909152601981527f5641554c545f455845435554455f4554485f4e4f5f44415441000000000000006020820152901515611b83576040517f08c379a00000000000000000000000000000000000000000000000000000000081526004018080602001828103825283818151815260200191508051906020019080838360008381101561021a578181015183820152602001610202565b50611b8d87612a77565b606060405190810160405280602181526020017f5641554c545f455845435554455f5441524745545f4e4f545f434f4e5452414381526020017f5400000000000000000000000000000000000000000000000000000000000000815250901515611c53576040517f08c379a00000000000000000000000000000000000000000000000000000000081526004018080602001828103825283818151815260200191508051906020019080838360008381101561021a578181015183820152602001610202565b508673ffffffffffffffffffffffffffffffffffffffff168686866040518083838082843782019150509250505060006040518083038185875af19250505092508215611d21578673ffffffffffffffffffffffffffffffffffffffff163373ffffffffffffffffffffffffffffffffffffffff167fc25cfed0b22da6a56f0e5ff784979a0b8623eddf2aee4acd33c2adefb09cbab6888888604051808481526020018060200182810382528484828181526020019250808284376040519201829003965090945050505050a35b3d604051816000823e848015611d35578282f35b8282fd5b604080517f5452414e534645525f524f4c45000000000000000000000000000000000000008152905190819003600d019020611d76848484612ae2565b611d81338383611738565b60408051808201909152600f81527f4150505f415554485f4641494c454400000000000000000000000000000000006020820152901515611e1e576040517f08c379a00000000000000000000000000000000000000000000000000000000081526004018080602001828103825283818151815260200191508051906020019080838360008381101561021a578181015183820152602001610202565b5060408051808201909152601981527f5641554c545f5452414e534645525f56414c55455f5a45524f00000000000000602082015260008411611ebd576040517f08c379a00000000000000000000000000000000000000000000000000000000081526004018080602001828103825283818151815260200191508051906020019080838360008381101561021a578181015183820152602001610202565b5073ffffffffffffffffffffffffffffffffffffffff85161515611fb25760405173ffffffffffffffffffffffffffffffffffffffff85169084156108fc029085906000818181858888f193505050506040805190810160405280601381526020017f5641554c545f53454e445f524556455254454400000000000000000000000000815250901515611fac576040517f08c379a00000000000000000000000000000000000000000000000000000000081526004018080602001828103825283818151815260200191508051906020019080838360008381101561021a578181015183820152602001610202565b50612120565b8473ffffffffffffffffffffffffffffffffffffffff1663a9059cbb85856040518363ffffffff167c0100000000000000000000000000000000000000000000000000000000028152600401808373ffffffffffffffffffffffffffffffffffffffff1673ffffffffffffffffffffffffffffffffffffffff16815260200182815260200192505050602060405180830381600087803b15801561205557600080fd5b505af1158015612069573d6000803e3d6000fd5b505050506040513d602081101561207f57600080fd5b505160408051808201909152601d81527f5641554c545f544f4b454e5f5452414e534645525f5245564552544544000000602082015290151561211e576040517f08c379a00000000000000000000000000000000000000000000000000000000081526004018080602001828103825283818151815260200191508051906020019080838360008381101561021a578181015183820152602001610202565b505b8373ffffffffffffffffffffffffffffffffffffffff168573ffffffffffffffffffffffffffffffffffffffff167f239e7f6cdac8fb35a788a46b431b54da87de90b82448a2c294be5e92a6e579af856040518082815260200191505060405180910390a35050505050565b60408051600180825281830190925260009160609190602080830190803883390190505090506121bb83612b1b565b8160008151811015156121ca57fe5b60209081029091010152604080517f52554e5f5343524950545f524f4c4500000000000000000000000000000000008152905190819003600f01902061221290859083611738565b91505b5092915050565b600061113d7f4172f0f7d2289153072b0a6ca36959e0cbe2efc3afe50fc81636caa96338137b61294e565b604080517f52554e5f5343524950545f524f4c4500000000000000000000000000000000008152905190819003600f019020606090819061228f61228a85612b1b565b612c3f565b61229a338383611738565b60408051808201909152600f81527f4150505f415554485f4641494c454400000000000000000000000000000000006020820152901515612337576040517f08c379a00000000000000000000000000000000000000000000000000000000081526004018080602001828103825283818151815260200191508051906020019080838360008381101561021a578181015183820152602001610202565b5060408051602080820183526000808352835190815290810190925294509250612362858585612c80565b505050505050565b60007fffffffffffffffffffffffffffffffffffffffffffffffffffffffffffffffff6123956113e0565b14905090565b600073ffffffffffffffffffffffffffffffffffffffff821615156123c257503031610c4f565b604080517f70a08231000000000000000000000000000000000000000000000000000000008152306004820152905173ffffffffffffffffffffffffffffffffffffffff8416916370a082319160248083019260209291908290030181600087803b15801561243057600080fd5b505af1158015612444573d6000803e3d6000fd5b505050506040513d602081101561245a57600080fd5b50519050610c4f565b600190565b4390565b60008080805b60148160ff1610156124d15761010083029250848160ff1681518110151561249657fe5b01602001517f010000000000000000000000000000000000000000000000000000000000000090819004810204928301929150600101612472565b50909392505050565b6060600060606000848651039250826040519080825280601f01601f191660200182016040528015612516578160200160208202803883390190505b509150600090505b828160ff1610156125d05785858260ff160181518110151561253c57fe5b9060200101517f010000000000000000000000000000000000000000000000000000000000000090047f010000000000000000000000000000000000000000000000000000000000000002828260ff1681518110151561259857fe5b9060200101907effffffffffffffffffffffffffffffffffffffffffffffffffffffffffffff1916908160001a90535060010161251e565b50949350505050565b600060606125e684612a77565b15156125f55760009150612215565b50604080517fffffffff0000000000000000000000000000000000000000000000000000000084166024808301919091528251808303909101815260449091019091526020810180517bffffffffffffffffffffffffffffffffffffffffffffffffffffffff167f01ffc9a70000000000000000000000000000000000000000000000000000000017905261221284825b6000806000806000805a945061c35085116126a157846126a5565b61c3505b9350600080885160208a018b88fa92508215156126c55760009550610e3f565b3d9150602082146126d95760009550610e3f565b604051826000823e8051600090915298975050505050505050565b6000806000806000855160421415156127105760009450612943565b85600081518110151561271f57fe5b9060200101517f010000000000000000000000000000000000000000000000000000000000000090047f0100000000000000000000000000000000000000000000000000000000000000027f0100000000000000000000000000000000000000000000000000000000000000900460ff16600281111561279b57fe5b93508560018151811015156127ac57fe5b0160200151602287015160428801517f01000000000000000000000000000000000000000000000000000000000000009283900483029290920494509250905060018460028111156127fa57fe5b141561284057604080517f19457468657265756d205369676e6564204d6573736167653a0a3332000000008152601c8101999099525197889003603c0190972096612890565b600284600281111561284e57fe5b141561289057604080517f19457468657265756d205369676e6564204d6573736167653a0a2000000000008152601b8101999099525197889003603b01909720965b60408051600080825260208083018085528c905260ff8716838501526060830186905260808301859052925173ffffffffffffffffffffffffffffffffffffffff8b169360019360a08082019492937fffffffffffffffffffffffffffffffffffffffffffffffffffffffffffffffe08101939281900390910191865af115801561291f573d6000803e3d6000fd5b5050506020604051035173ffffffffffffffffffffffffffffffffffffffff161494505b505050509392505050565b5490565b606061295d82612c3f565b92915050565b61296b6113e0565b60408051808201909152601881527f494e49545f414c52454144595f494e495449414c495a4544000000000000000060208201529015612a07576040517f08c379a00000000000000000000000000000000000000000000000000000000081526004018080602001828103825283818151815260200191508051906020019080838360008381101561021a578181015183820152602001610202565b506113de612a13612468565b7febb05b386a8d34882b8711d156f463690983dc47815980fb82aeeff1aa43579e9063ffffffff6133de16565b612a707f665fd576fbbe6f247aff98f5c94a561e3f71ec2d3c988d56f12d342396c50cea8263ffffffff6133de16565b50565b5490565b60008073ffffffffffffffffffffffffffffffffffffffff83161515612aa05760009150612aab565b823b90506000811191505b50919050565b60200190565b6060612ada8473ffffffffffffffffffffffffffffffffffffffff1684846133e2565b949350505050565b6060612ada8473ffffffffffffffffffffffffffffffffffffffff168473ffffffffffffffffffffffffffffffffffffffff16846133e2565b6000816040516020018082805190602001908083835b60208310612b6e57805182527fffffffffffffffffffffffffffffffffffffffffffffffffffffffffffffffe09092019160209182019101612b31565b6001836020036101000a0380198251168184511680821785525050505050509050019150506040516020818303038152906040526040518082805190602001908083835b60208310612bef57805182527fffffffffffffffffffffffffffffffffffffffffffffffffffffffffffffffe09092019160209182019101612bb2565b5181516020939093036101000a7fffffffffffffffffffffffffffffffffffffffffffffffffffffffffffffffff0180199091169216919091179052604051920182900390912095945050505050565b6040805160018082528183019092526060916020808301908038833901905050905081816000815181101515612c7157fe5b60209081029091010152919050565b6060600080606080612c90610844565b60408051808201909152601481527f494e49545f4e4f545f494e495449414c495a45440000000000000000000000006020820152901515612d2d576040517f08c379a00000000000000000000000000000000000000000000000000000000081526004018080602001828103825283818151815260200191508051906020019080838360008381101561021a578181015183820152602001610202565b50600080612d3961221c565b9150612d436112fc565b9050612d4e8a610e7f565b60408051808201909152601b81527f45564d52554e5f4558454355544f525f554e415641494c41424c450000000000602082015290965073ffffffffffffffffffffffffffffffffffffffff87161515612e04576040517f08c379a00000000000000000000000000000000000000000000000000000000081526004018080602001828103825283818151815260200191508051906020019080838360008381101561021a578181015183820152602001610202565b506040516060602482019081528b5160848301528b517f279cea3500000000000000000000000000000000000000000000000000000000975087928d928d928d9282916044820191606481019160a490910190602089019080838360005b83811015612e7a578181015183820152602001612e62565b50505050905090810190601f168015612ea75780820380516001836020036101000a031916815260200191505b50848103835286518152865160209182019188019080838360005b83811015612eda578181015183820152602001612ec2565b50505050905090810190601f168015612f075780820380516001836020036101000a031916815260200191505b508481038252855181528551602091820191808801910280838360005b83811015612f3c578181015183820152602001612f24565b505050509050019650505050505050604051602081830303815290604052907bffffffffffffffffffffffffffffffffffffffffffffffffffffffff19166020820180517bffffffffffffffffffffffffffffffffffffffffffffffffffffffff838183161783525050505093508573ffffffffffffffffffffffffffffffffffffffff168460405180828051906020019080838360005b83811015612fec578181015183820152602001612fd4565b50505050905090810190601f1680156130195780820380516001836020036101000a031916815260200191505b50915050600060405180830381855af460408051808201909152601981527f45564d52554e5f455845435554494f4e5f52455645525445440000000000000060208201529250151590506130c9576040517f08c379a00000000000000000000000000000000000000000000000000000000081526004018080602001828103825283818151815260200191508051906020019080838360008381101561021a578181015183820152602001610202565b506130d261345b565b92508573ffffffffffffffffffffffffffffffffffffffff167f5229a5dba83a54ae8cb5b51bdd6de9474cacbe9dd332f5185f3a4f4f2e3f4ad98b8b8660405180806020018060200180602001848103845287818151815260200191508051906020019080838360005b8381101561315457818101518382015260200161313c565b50505050905090810190601f1680156131815780820380516001836020036101000a031916815260200191505b50848103835286518152865160209182019188019080838360005b838110156131b457818101518382015260200161319c565b50505050905090810190601f1680156131e15780820380516001836020036101000a031916815260200191505b50848103825285518152855160209182019187019080838360005b838110156132145781810151838201526020016131fc565b50505050905090810190601f1680156132415780820380516001836020036101000a031916815260200191505b50965050505050505060405180910390a28296508173ffffffffffffffffffffffffffffffffffffffff1661327461221c565b73ffffffffffffffffffffffffffffffffffffffff16146040805190810160405280601f81526020017f45564d52554e5f50524f5445435445445f53544154455f4d4f4449464945440081525090151561332a576040517f08c379a00000000000000000000000000000000000000000000000000000000081526004018080602001828103825283818151815260200191508051906020019080838360008381101561021a578181015183820152602001610202565b50806133346112fc565b60408051808201909152601f81527f45564d52554e5f50524f5445435445445f53544154455f4d4f44494649454400602082015291146133d0576040517f08c379a00000000000000000000000000000000000000000000000000000000081526004018080602001828103825283818151815260200191508051906020019080838360008381101561021a578181015183820152602001610202565b505050505050509392505050565b9055565b604080516003808252608082019092526060916020820183803883390190505090508381600081518110151561341457fe5b60209081029091010152805183908290600190811061342f57fe5b60209081029091010152805182908290600290811061344a57fe5b602090810290910101529392505050565b60603d80801561347c576040519250602082018301604052602082036020843e5b5050905600a165627a7a72305820a2d2ee4848a4c8e371a6ceeb864cbd80c282b5423f4c21c820cb81312af6dd520029ebb05b386a8d34882b8711d156f463690983dc47815980fb82aeeff1aa43579e",
  "source": "/*\n * SPDX-License-Identitifer:    GPL-3.0-or-later\n */\n\npragma solidity 0.4.24;\n\nimport \"./SignatureValidator.sol\";\nimport \"./standards/IERC165.sol\";\nimport \"./standards/IERC1271.sol\";\n\nimport \"@aragon/apps-vault/contracts/Vault.sol\";\n\nimport \"@aragon/os/contracts/common/IForwarder.sol\";\n\n\ncontract Actor is Vault, IERC165, IERC1271, IForwarder {\n    bytes32 public constant EXECUTE_ROLE = keccak256(\"EXECUTE_ROLE\");\n    bytes32 public constant RUN_SCRIPT_ROLE = keccak256(\"RUN_SCRIPT_ROLE\");\n    bytes32 public constant PRESIGN_HASH_ROLE = keccak256(\"PRESIGN_HASH_ROLE\");\n\n    bytes4 public constant ISVALIDSIG_INTERFACE_ID = 0xabababab; // TODO: Add actual interfaceId\n\n    string private constant ERROR_EXECUTE_ETH_NO_DATA = \"VAULT_EXECUTE_ETH_NO_DATA\";\n    string private constant ERROR_EXECUTE_TARGET_NOT_CONTRACT = \"VAULT_EXECUTE_TARGET_NOT_CONTRACT\";\n\n    uint256 internal constant STATICCALL_MAX_GAS = 50000;\n\n    mapping (bytes32 => bool) public isPresigned;\n\n    event Execute(address indexed sender, address indexed target, uint256 ethValue, bytes data);\n    event PresignHash(address indexed sender, bytes32 indexed hash);\n    event SetDesignatedSigner(address indexed sender, address indexed oldSigner, address indexed newSigner);\n\n    // TODO: requires the @decodeData helper to be implemented in radspec\n    /**\n    * @notice Execute `@decodeData(target, data)` on `target` `ethValue == 0 ? '' : '(Sending' + @formatToken(ethValue, ETH) + ')'`.\n    * @param _target Address where the action is being executed\n    * @param _ethValue Amount of ETH from the contract that is sent with the action\n    * @param _data Calldata for the action\n    * @return Exits call frame forwarding the return data of the executed call (either error or success data)\n    */\n    function execute(address _target, uint256 _ethValue, bytes _data)\n        external // This function MUST always be external as the function performs a low level return, exiting the Actor app execution context\n        authP(EXECUTE_ROLE, arr(_target, _ethValue, uint256(getSig(_data)))) // TODO: Test that sig bytes are the least significant bytes\n    {\n        require(_ethValue == 0 || _data.length > 0, ERROR_EXECUTE_ETH_NO_DATA); // if ETH value is sent, there must be data\n        require(isContract(_target), ERROR_EXECUTE_TARGET_NOT_CONTRACT);\n\n        bool result = _target.call.value(_ethValue)(_data);\n\n        if (result) {\n            emit Execute(msg.sender, _target, _ethValue, _data);\n        }\n\n        assembly {\n            let size := returndatasize\n            let ptr := mload(0x40)\n            returndatacopy(ptr, 0, size)\n\n            // revert instead of invalid() bc if the underlying call failed with invalid() it already wasted gas.\n            // if the call returned error data, forward it\n            switch result case 0 { revert(ptr, size) }\n            default { return(ptr, size) }\n        }\n    }\n\n    function presignHash(bytes32 _hash)\n        external\n        authP(PRESIGN_HASH_ROLE, arr(_hash))\n    {\n        isPresigned[_hash] = true;\n\n        emit PresignHash(msg.sender, _hash);\n    }\n\n    function isForwarder() external pure returns (bool) {\n        return true;\n    }\n\n    function supportsInterface(bytes4 interfaceId) external pure returns (bool) {\n        return interfaceId == ISVALIDSIG_INTERFACE_ID;\n    }\n\n    function forward(bytes _evmScript)\n        public\n        authP(RUN_SCRIPT_ROLE, arr(getScriptACLParam(_evmScript)))\n    {\n        bytes memory input = \"\"; // no input\n        address[] memory blacklist = new address[](0); // no addr blacklist, can interact with anything\n        runScript(_evmScript, input, blacklist);\n        // We don't need to emit an event here as EVMScriptRunner will emit ScriptResult if successful\n    }\n\n    function isValidSignature(bytes32 hash, bytes signature) public view returns (bool) {\n        // Short-circuit in case the hash was presigned. Optimization as performing calls\n        // and ecrecover is more expensive than an SLOAD.\n        if (isPresigned[hash]) {\n            return true;\n        }\n\n        address designatedSigner = addressAt(signature);\n        bytes memory designatedSignature = bytesAfter(signature,20);\n        //should return the entire signature except the address\n\n        uint256[] memory params = new uint256[](0);\n        if (!canPerform(designatedSigner,PRESIGN_HASH_ROLE,params)) {\n            return false;\n        }\n\n        // Checks if designatedSigner is a contract, and if it supports the isValidSignature interface\n        if (safeSupportsInterface(IERC165(designatedSigner), ISVALIDSIG_INTERFACE_ID)) {\n            // designatedSigner.isValidSignature(hash, signature) as a staticall\n            IERC1271 signerContract = IERC1271(designatedSigner);\n            bytes memory calldata = abi.encodeWithSelector(signerContract.isValidSignature.selector, hash, designatedSignature);\n            return safeBoolStaticCall(signerContract, calldata);\n        }\n\n        // `safeSupportsInterface` returns false if designatedSigner is a contract but it\n        // doesn't support the interface. Here we check the validity of the ECDSA sig\n        // which will always fail if designatedSigner is not an EOA\n\n        return SignatureValidator.isValidSignature(hash, designatedSigner, designatedSignature);\n    }\n\n    function canForward(address sender, bytes evmScript) public view returns (bool) {\n        uint256[] memory params = new uint256[](1);\n        params[0] = getScriptACLParam(evmScript);\n        return canPerform(sender, RUN_SCRIPT_ROLE, params);\n    }\n\n    function safeSupportsInterface(IERC165 target, bytes4 interfaceId) internal view returns (bool) {\n        if (!isContract(target)) {\n            return false;\n        }\n\n        bytes memory calldata = abi.encodeWithSelector(target.supportsInterface.selector, interfaceId);\n        return safeBoolStaticCall(target, calldata);\n    }\n\n    function safeBoolStaticCall(address target, bytes calldata) internal view returns (bool) {\n        uint256 gasLeft = gasleft();\n\n        uint256 callGas = gasLeft > STATICCALL_MAX_GAS ? STATICCALL_MAX_GAS : gasLeft;\n        bool ok;\n        assembly {\n            ok := staticcall(callGas, target, add(calldata, 0x20), mload(calldata), 0, 0)\n        }\n\n        if (!ok) {\n            return false;\n        }\n\n        uint256 size;\n        assembly { size := returndatasize }\n        if (size != 32) {\n            return false;\n        }\n\n        bool result;\n        assembly {\n            let ptr := mload(0x40)       // get next free memory ptr\n            returndatacopy(ptr, 0, size) // copy return from above `staticcall`\n            result := mload(ptr)         // read data at ptr and set it to result\n            mstore(ptr, 0)               // set pointer memory to 0 so it still is the next free ptr\n        }\n\n        return result;\n    }\n\n    function getScriptACLParam(bytes evmScript) internal pure returns (uint256) {\n        return uint256(keccak256(abi.encodePacked(evmScript)));\n    }\n\n    function getSig(bytes data) internal pure returns (bytes4 sig) {\n        assembly { sig := add(data, 0x20) }\n    }\n\n    function addressAt(bytes data) internal pure returns (address) {\n        uint160 m = 0;\n        uint160 b = 0;\n\n        for (uint8 i = 0; i < 20; i++) {\n          m *= 256;\n          b = uint160(data[i]);\n          m += (b);\n        }\n\n        return address(m);\n    }\n\n    function bytesAfter(bytes data, uint offset) internal pure returns (bytes) {\n        uint length = data.length - offset;\n        bytes memory result = new bytes(length);\n\n        for (uint8 i = 0; i < length; i++) {\n          result[i]=data[i+offset];\n        }\n\n        return result;\n    }\n}\n",
  "sourcePath": "/home/jeremy/aragon-apps/future-apps/actor/contracts/Actor.sol",
  "compiler": {
    "name": "solc",
    "version": "0.4.24+commit.e67f0147.Emscripten.clang"
  },
  "schemaVersion": "2.0.1",
  "updatedAt": "2019-01-14T06:35:55.237Z"
}